:020000040800F2
:10000000A0070020890100081F150008AB13000895
:100010001D150008130300089519000800000000D2
:100020000000000000000000000000002315000890
:1000300029030008000000002115000835160008FB
:10004000A3010008A3010008A3010008A301000800
:10005000A3010008A3010008A3010008A3010008F0
:10006000A3010008A3010008A3010008A3010008E0
:10007000A3010008A3010008A3010008A3010008D0
:10008000A3010008A3010008A3010008A3010008C0
:10009000A3010008A3010008A3010008A3010008B0
:1000A000A3010008A3010008A3010008A3010008A0
:1000B000A3010008A3010008A3010008A301000890
:1000C000A3010008A3010008A3010008A301000880
:1000D000A3010008A3010008A3010008A301000870
:1000E0002B030008A3010008A301000800F002F898
:1000F00000F03AF80AA090E8000C82448344AAF188
:100100000107DA4501D100F02FF8AFF2090EBAE885
:100110000F0013F0010F18BFFB1A43F0010318473B
:10012000881A0000A81A0000103A24BF78C878C1C5
:10013000FAD8520724BF30C830C144BF04680C60ED
:10014000704700000023002400250026103A28BF35
:1001500078C1FBD8520728BF30C148BF0B60704739
:100160001FB51FBD10B510BD00F099F81146FFF77F
:10017000F7FF01F021FC00F0B7F803B4FFF7F2FF3E
:1001800003BC00F0BFF80000094880470948004759
:10019000FEE7FEE7FEE7FEE7FEE7FEE7FEE7FEE737
:1001A000FEE7FEE704480549054A064B7047000094
:1001B00097160008ED000008A0010020A00700200D
:1001C000A0030020A00300204FF0000200B513465A
:1001D00094469646203922BFA0E80C50A0E80C5067
:1001E000B1F12001BFF4F7AF090728BFA0E80C5018
:1001F00048BF0CC05DF804EB890028BF40F8042B11
:1002000008BF704748BF20F8022B11F0804F18BF7D
:1002100000F8012B704700004FF0013C50F8042B10
:1002200051F8043B9A4221D1A2EB0C03934313EA09
:10023000CC1317D150F8042B51F8043B9A4215D136
:10024000A2EB0C03934313EACC130BD150F8042B0D
:1002500051F8043B9A4209D1A2EB0C03934313EAF1
:10026000CC13DBD04FF00000704700BFD01A01BAAA
:10027000B1FA81F101F0180122FA01F0CB40C1F18D
:100280002001DBB2C0B2C01A2CFA01F3D11A91439B
:1002900011EAC311E6D17047704770477047754641
:1002A00000F02CF8AE4605006946534620F00700E2
:1002B000854618B020B5FFF775FFBDE820404FF028
:1002C00000064FF000074FF000084FF0000B21F040
:1002D0000701AC46ACE8C009ACE8C009ACE8C0090D
:1002E000ACE8C0098D46704710B50446AFF30080F6
:1002F0002046BDE81040FFF740BF000000487047AF
:100300003C01002001491820ABBEFEE72600020098
:100310007047FEE7024600200621535C491C184442
:10032000C0B20929F9DD704770474FF4006000F052
:10033000BFB972B6FEE7000010B501466423112272
:100340000D4800F0E5FF4FF0FF3310220B490A483B
:1003500000F088FF0021094A0620135C401C194464
:10036000C9B20D28F9DDD07B884201D1507A08B19D
:10037000FF2010BDD07A10BDF400002090000020B6
:1003800010B5C17200220621435C491C1A44D2B246
:100390000D29F9DDC273014664231022114800F0D3
:1003A000B7FF4FF0FF330C220F490E4800F05AFF01
:1003B0000D48FFF7AFFF0C49CA7A90420FD1487A37
:1003C0004FF0050228B9022108A001F0ABF8012086
:1003D00010BD022107A001F0A5F8002010BD0322E6
:1003E000F7E70000F400002090000020424C554543
:1003F000000000005245440010B581720022062121
:10040000435C491C1A44D2B20A29F9DD0273002167
:100410000F4C0A466254491C1329FBDD0146C823D0
:100420000D220C4800F074FF4FF0FF330C220849F6
:10043000084800F017FF0648FFF76CFFE17A884292
:1004400001D1607A08B1002010BD012010BD00006C
:1004500090000020F400002010B5014664230C2217
:100460000B4800F055FF4FF0FF330C2209490848B4
:1004700000F0F8FE0748FFF74DFF0649CA7A9042A0
:1004800001D1487A08B1002010BD012010BD000044
:10049000F40000209000002010B501228272017348
:1004A00000220621435C491C1A44D2B20C29F9DD12
:1004B0008273014664230F220B4800F029FF4FF09E
:1004C000FF330C220949084800F0CCFE0748FFF72B
:1004D00021FF0649CA7A904201D1487A08B100202A
:1004E00010BD012010BD0000F4000020900000208D
:1004F00010B5014664230C220D4800F009FF4FF0AF
:10050000FF330C220B490A4800F0ACFE0948FFF704
:1005100001FF0849CA7A904201D1487A08B1002007
:1005200010BD4FF47A7000F089F8012010BD000072
:10053000F40000209000002010B501466423112231
:10054000154800F0E5FE4FF0FF3310221349124822
:1005500000F088FE0021114A0620135C401C19445B
:10056000C9B20D28F9DDD07B884210D1507A4FF006
:1005700003024FF0020128B109A000BF00F0D2FF32
:10058000002010BD07A000F0CDFF012010BD052206
:10059000022106A0F2E70000F400002090000020F5
:1005A00052454400475245454E000000424C5545D7
:1005B0000000000010B5014664230C220D4800F035
:1005C000A7FE4FF0FF330E220B490A4800F04AFE07
:1005D0000021094A0620135C401C1944C9B20B28AB
:1005E000F9DD507B884201D1507A08B1FF2010BD5F
:1005F000D07A10BDF40000209000002010B5014614
:1006000064230C220B4800F083FE4FF0FF330C22D2
:100610000949084800F026FE0748FFF77BFE064917
:10062000CA7A904201D1487A08B1002010BD012059
:1006300010BD0000F40000209000002070B50446BA
:1006400000F03CF90546601C02D0044800780444E0
:1006500000F034F9401BA042FAD370BD80000020A6
:100660002DE9F0474FF400650E4CA84218D10E4E0C
:10067000DFF838804FF4FA79FA272946404600F02F
:1006800013F900280CD1316820680864401F2060ED
:100690004846FFF7D3FF20683228EEDC2760ECE7FE
:1006A000BDE8F08700000020AC000020000C0140F5
:1006B000044910B50A68024202D00860FFF7D0FF73
:1006C00010BD0000140401402DE9F84FDFF8B89187
:1006D0000024A9F1040B23460F2709F1040AABF10A
:1006E000040EC9E00125A5402A40AA427DD1674EEB
:1006F000D1F804C0ACEB0608B44532D014DCBCF130
:10070000030F3AD009DCBCF1000F2AD0BCF1010F75
:100710001CD0BCF1020F31D11DE0BCF1110F17D07C
:10072000BCF1120F2AD119E0B8F5881F19D006DCE8
:10073000B8F5803F15D0B8F5801F1FD111E0B8F58E
:10074000001F0ED0B8F5041F18D10AE0CB6815E0E1
:10075000CB681B1D12E0CB6808330FE0CB680C336D
:100760000CE08B682BB1012B4FF0080303D04561DF
:1007700004E0042302E0056100E00023FF2A01D821
:10078000064601E000F104064FEA840501D9A5F10F
:100790002005D6F8008007FA05FC28EA0C0803FAC1
:1007A00005F548EA0508C6F800804D68ED0062D5F9
:1007B000374DAE6946F00106AE61AD6924F003061F
:1007C00005F001050095334D06EB050CDCF80850EB
:1007D000A607360F07FA06F825EA0805DFF8B880FD
:1007E000404503D14FF0000817E044E0DFF8AC804B
:1007F000404502D14FF001080FE0DFF8A4804045EA
:1008000002D14FF0020808E0DFF89880404502D19D
:100810004FF0030801E04FF0040808FA06F848EA30
:100820000508CCF808804D68D9F80060ED024D4607
:1008300001D5164300E096432E604D68DAF800605B
:10084000AD02554601D5164300E096432E604D6833
:10085000DBF80060AD035D4601D5164300E096432A
:100860002E604D68DEF80060ED03754601D5164335
:1008700000E096432E60641C0D682A46E5407FF434
:1008800031AFBDE8F88F00000804014000001110EE
:10089000001002400000014000080140000C01402F
:1008A00000100140001401408068084000D0012081
:1008B00070470AB1016170470904FBE7014880688D
:1008C00070470000800000200248816802781144CF
:1008D0008160704780000020074810B5016841F032
:1008E00010010160032000F075F8002000F006F808
:1008F00000F024F8002010BD0020024070B50D4D1E
:1009000004464FF47A712878B1FBF0F00A4909687F
:10091000B1FBF0F000F0DCFA48B9102C07D200224D
:100920002146501E00F036F800206C6070BD01209A
:1009300070BD0000800000208C0000200C4808B52D
:10094000816941F001018161816901F0010100913A
:10095000C16941F08051C161C06900F080500090D0
:100960000448416821F0E06141F00071416008BD38
:100970000010024000000140002809DB00F01F02C7
:10098000012191404009800000F1E020C0F80011F1
:1009900070470000F0B40E4B1B680C46C3F30223F3
:1009A000C3F10705042D00D90425191D072901D21B
:1009B000002300E0DB1E012606FA05F1491E214056
:1009C00099409E40761E16403143F0BC00F0E3BFD4
:1009D0000CED00E0064900F0070208684FF6FF033F
:1009E000184040EA0220034A1043086070470000A4
:1009F0000CED00E00000FA052DE9F0470F46050078
:100A000061D0434E306800F00700B84209D2306828
:100A100020F0070038433060306800F00700B8422B
:100A200051D128683B4C810712D5400703D5606837
:100A300040F4E06060602878000703D5606840F407
:100A4000605060606068A96820F0F0000843606052
:100A50002878C00728D06868012810D021680228AB
:100A600010D0890700292EDA616821F003010143C3
:100A70006160FFF723FF804641F288390DE021686D
:100A80008903EFE78901EDE7FFF718FFA0EB080105
:100A9000494502D90320BDE8F0876068696800F025
:100AA0000C00B0EB810FEFD1306800F00700B842C6
:100AB0000BD9306820F0070038433060306800F010
:100AC0000700B84201D00120E5E72878400705D5A6
:100AD0006068E96820F4E0600843606028780007F7
:100AE00006D56068296920F4605040EAC100606062
:100AF00000F038F86168084AC1F30311515CC8403E
:100B00000649086006480068FFF7F8FE0020C2E7C3
:100B100000200240001002408E1B00088C000020C4
:100B2000840000200448054900684968044AC1F36C
:100B30000221515CC84070478C0000200010024028
:100B40009E1B00080448054900684968044AC1F32F
:100B5000C221515CC84070478C0000200010024048
:100B60009E1B00080E4A51680E4801F00C03042B2E
:100B700011D0082B0FD10C48C1F38343C903C05CCB
:100B80000AD55168084AC1F34041921E515C054A9A
:100B90005043B0FBF1F070470449484370470000F0
:100BA0000010024000127A007E1B000800093D0080
:100BB0002DE9F84F040070D02078C04DC00749D00F
:100BC0006868C0F38100012807D06868C0F381001D
:100BD000022809D16868C00306D52868800339D582
:100BE00060680028E7D035E06068B0F5803F0BD042
:100BF00010B1B0F5A02F11D0286820F48030286003
:100C0000286820F4802002E0286840F480302860C2
:100C1000606890B1FFF752FE06460AE0286840F48B
:100C200080202860F0E700BFFFF748FE801B6428A3
:100C300073D828688003F7D50CE0FFF73FFE06461F
:100C400005E000BFFFF73AFE801B6428F0D8286853
:100C50008003F7D420789A4E80074FF001094FF0B7
:100C6000000839D5686810F00C0F07D06868C0F329
:100C70008100022809D16868C00306D4286880076B
:100C800014D52069012808D110E02069B0B1C6F858
:100C90000090FFF713FE074605E00AE1FFF70EFE9E
:100CA000C01B0228C4D828688007F7D52868616966
:100CB00020F0F80040EAC10028600DE0C6F800808E
:100CC000FFF7FCFD074604E0FFF7F8FDC01B022814
:100CD00023D828688007F7D4207800072CD57948D6
:100CE000A169D9B1C0F80090FFF7E8FD074604E01C
:100CF000FFF7E4FDC01B02280FD8686A8007F7D50C
:100D000071484FF4FA510068B0FBF1F0009000BF59
:100D10000098411E0091FAD20EE080E0C0F80080F9
:100D2000FFF7CCFD074604E0FFF7C8FDC01B022813
:100D300075D8686A8007F7D42078400760D5E869DD
:100D40000027C00008D4E86940F08050E861E869F5
:100D5000012700F0805000905C480168C90513D459
:100D60000168834641F480710160FFF7A7FD824668
:100D700006E000BFFFF7A2FDA0EB0A0064284ED8F2
:100D8000DBF80000C005F5D5E06801280AD008B1FD
:100D9000052813D0286A20F001002862286A20F074
:100DA000040002E0286A40F001002862E06841F295
:100DB000883B98B1FFF782FD82460BE0286A40F03D
:100DC00004002862EEE700BFFFF778FDA0EB0A0100
:100DD00059455AD8286A8007F6D50CE0FFF76EFD12
:100DE000824605E0FFF76AFDA0EB0A0159454CD8A1
:100DF000286A8007F6D41FB1E86920F08050E861C6
:100E0000E06988B36968C1F38101022944D00228EE
:100E1000C6F8608004D0FFF751FD044638E034E0A6
:100E2000FFF74CFD074604E0FFF748FDC01B022812
:100E30002BD828688001F7D4206AB0F5803F05D10F
:100E40006868A16820F4003008436860D4E90801AC
:100E50000843696821F4741108436860C6F860901B
:100E6000FFF72CFD044606E025E000BFFFF726FD56
:100E7000001B022809D828688001F7D51BE000BFB5
:100E8000FFF71CFD001B022802D90320BDE8F88FE4
:100E900028688001F4D40EE00128F7D06868226A3F
:100EA00000F48031914204D1616A00F470108842EC
:100EB00001D00120EAE70020E8E70000001002402E
:100EC00000004242800442428C000020007000403A
:100ED00010B5401EB0F1807F01D3012010BD4FF04E
:100EE000E02460610F21601700F055FD0020A06133
:100EF00007202061002010BD70B590F83C20012A29
:100F000026D0012480F83C40022280F83D2003686E
:100F10005A689D6822F070060A6832435A600D4B89
:100F200002689A4208D0B2F1804F05D00A4B9A422B
:100F300002D00A4B9A4204D1496825F08003194334
:100F4000916080F83D40002180F83C10084670BD5B
:100F5000022070BD002C0140000400400008004049
:100F600000B585B0002100910191029103910068C4
:100F7000B0F1804F11D10A48816941F004018161CB
:100F80008069694600F00400049008200090022067
:100F9000019003900348FFF797FB05B000BD0000E8
:100FA000001002400008014070B5044690F83C0073
:100FB00000260D4601280FD0012084F83C006AB1BC
:100FC000042A1DD0082A2FD00C2A3FD00126002049
:100FD00084F83C00304670BD022070BD206800F0EF
:100FE0009FFB2068816941F0080181612068816967
:100FF00021F004018161206881692A69114311E0AF
:10100000206800F0B5FB2068816941F400618161CE
:101010002068816921F480618161206881692A6981
:1010200041EA02218161D2E7206800F0CDFB20680F
:10103000C16941F00801C1612068C16921F0040162
:10104000C1612068C1692A69114311E0206800F07C
:10105000E7FB2068C16941F40061C1612068C16992
:1010600021F48061C1612068C1692A6941EA0221D5
:10107000C161ACE710B5040003D094F83D0010B195
:1010800007E0012010BD002084F83C00204600F05D
:101090001FF8022084F83D00211D206800F0FCFAB2
:1010A000012084F8460084F83E0084F83F0084F86C
:1010B000400084F8410084F8420084F8430084F83A
:1010C000440084F8450084F83D00002010BD000075
:1010D00008B50068B0F1804F08D10548C16941F0FA
:1010E0000101C161C06900F00100009008BD00006D
:1010F0000010024010B50446022249B104290ED066
:10110000082913D094F84100012816D0012010BD01
:1011100094F83E000128F9D184F83E200FE094F8BD
:101120003F000128F2D184F83F2008E094F8400005
:101130000128EBD184F8402001E084F8412001220D
:10114000206800F0DFFA0F492068884203D1426C22
:1011500042F4004242642068884208D0B0F1804FD7
:1011600005D00949884202D00849884204D18168E3
:1011700001F00701062903D0016841F00101016077
:10118000002010BD002C0140000400400008004079
:1011900070B5040004D094F84100002510B106E0B9
:1011A000012070BD84F84050204600F023F8242030
:1011B00084F841002068C16821F40051C1602046D4
:1011C00000F050FB2068016921F490410161206822
:1011D000416921F02A0141612068C16841F4005150
:1011E000C1606564202084F8410084F84200656392
:1011F000002070BD30B585B00024009401940294A5
:10120000039400681449884224D11448816941F448
:1012100080418161816901F480410491816941F0DB
:101220000401816180690E4D00F0040004904FF4C8
:101230000070009002200190032003906946284628
:10124000FFF742FA2815CDE90004694628460294C2
:10125000FFF73AFA05B030BD0038014000100240F7
:10126000000801402DE9F843044690F842009946F1
:1012700016460D46202802D00220BDE8F883ADB105
:10128000A6B100206064222184F842102063FFF799
:1012900015FBA6858046E685A0684FF48057B842C6
:1012A00001D1206920B12E46002526E00120E4E787
:1012B000002622E04346002220212046CDF800905F
:1012C00000F02CFB08B10320D7E726B1A068B84294
:1012D0001BD038B108E020684068C0F3080025F84A
:1012E000020B07E0206980B12068406800F07F00B1
:1012F00006F8010BE08D401EE085E08D0028D9D175
:10130000202084F842000020B7E720684068EFE71B
:101310002DE9F843044690F841001F4616460D4655
:10132000202802D00220BDE8F8837DB176B10020EC
:101330006064212084F84100FFF7C0FAA68480464B
:10134000E684A068B0F5805F02D003E00120EAE700
:10135000206910B12E4600250EE000260CE0802109
:10136000204600F0DBFAA0B9AEB116F8010B2168F7
:101370004860E08C401EE084E08C43464FF0000261
:1013800000970028EBD14FF04001204600F0C6FA4C
:1013900030B10320C7E735F8020BC0F30800E6E7D9
:1013A000202084F841000020BDE7FEE72DE9F04150
:1013B00086B000252948009501950295039581691D
:1013C00041F020018161816901F02001049181696E
:1013D00041F004018161816901F004010491816996
:1013E00041F0080181618069DFF8748000F0080035
:1013F00004900122C0214046FFF75BFA0124C0207F
:10140000CDE900040226CDE9024669464046FFF7D1
:101410005BF9E00200901348CDE90104124F6946E0
:101420003846FFF751F920038DE8610069463846D8
:10143000FFF74AF94FF41060CDE9000569460294C0
:101440004046FFF741F900220F212820FFF7A2FABA
:101450002820FFF791FA06B0BDE8F08100100240A5
:101460000008014000002110000C014010B58AB0B6
:10147000002407941C2168460894FEF7A5FE17482F
:101480004FF08041016040F2CF21C0E9011440F2E9
:10149000CF71C0E9031480218161FFF7EBFD08B132
:1014A000FEF747FF079407A90C480894FFF724FDAF
:1014B00008B1FEF73EFF6020CDE9000402940C2243
:1014C000694606480494FFF76FFD08B1FEF731FF47
:1014D0000248FFF745FD0AB010BD0000AC00002037
:1014E0000D4810B50B4901604FF461414160002186
:1014F0004FF40052C0E902120C22C0E904128161CB
:10150000C161FFF745FE002803D0BDE81040FEF79B
:1015100010BF10BD00380140F4000020FEE7FEE7D8
:10152000704770472DE9FF4137A4174680461DCC10
:101530008DE81D00042431B101260225012905D0C2
:10154000022925D046E08DF80A4043E003208DF8BB
:101550000A0031A14046FEF75FFE50B12FA1404680
:10156000FEF75AFE50B12FA14046FEF755FE50B18E
:1015700030E08DF80B408DF80C402BE08DF80B60BF
:101580008DF80C6026E08DF80B508DF80C5021E0A2
:1015900021A14046FEF740FE50B120A14046FEF793
:1015A0003BFE50B11FA14046FEF736FE50B10DE0A4
:1015B0008DF80B408DF80C4008E08DF80B608DF82D
:1015C0000C6003E08DF80B508DF80C508DF80A502C
:1015D0008DF80D70062069469DF80F200B5C401CAD
:1015E0001A448DF80F200E28F6DB642310220F48D2
:1015F000FFF78EFE4FF0FF330C220D490B48FFF72B
:1016000031FEBDE8FF810000EF01FFFFFFFF010099
:10161000073C00000000000052454400424C554584
:1016200000000000475245454E000000F400002035
:1016300090000020FFF748B930B58FB028216846E8
:10164000FEF7C2FD14210AA8FEF7BEFD0121080421
:10165000CDE900100024029402250491CDE9075041
:101660004FF4E01009906846FFF7A2FA08B172B68D
:10167000FEE70F20CDE90A054FF48060CDE90C406C
:1016800002210AA80E94FFF7B7F9002801D072B61C
:10169000FEE70FB030BD7047F0B50268164B174C2F
:1016A000174D4FF08047984205D0B84203D0A04272
:1016B00001D0A84203D122F070064A683243984212
:1016C00005D0B84203D0A04201D0A84203D122F4F1
:1016D0004074CA6822434C6922F0800222430260AF
:1016E0008A68C2620A688262984201D1096901630C
:1016F00001214161F0BD0000002C014000040040C8
:101700000008004010B501F01F030121046A994050
:101710008C430462016A9A401143016210BD0000CB
:1017200030B5036A026A22F00102026242688469EB
:1017300024F073050C682C4323F002058B682B43BF
:101740000A4DA8420BD123F00805CB6822F4407261
:101750002B434D6923F0040315438A692A434260F1
:10176000846149684163036230BD0000002C014080
:1017700030B5026A036A23F0100303624368846988
:101780000D6824F4E64444EA05248D6822F0200222
:1017900042EA05120B4DA8420ED1CD6822F080021C
:1017A00042EA05124D6923F4406343EA85038D69DB
:1017B00022F0400243EA8503436084614968816303
:1017C000026230BD002C014030B5036A026A22F487
:1017D000807202624268C46923F4007324F07305C6
:1017E0000C682C438D6843EA05230C4DA8420ED1AA
:1017F000CD6823F4006343EA05234D6922F4405287
:1018000042EA05128D6923F4806342EA05124260C0
:10181000C4614968C163036230BD0000002C01400F
:1018200030B5046A026A22F4805202624268C369D7
:101830000D6823F4E64343EA05238D6824F400543D
:1018400044EA0534064DA84204D14D6922F4804291
:1018500042EA85124260C36149680164046230BD96
:10186000002C014070B5044600680169E26821F46B
:101870004051114301612169A0680843616908432F
:101880002168CA6841F20C639A430243CA60206827
:101890004169A26921F44071114341611E492068E8
:1018A000884202D1FFF74EF901E0FFF73BF900EB68
:1018B000C00101EB0012606864218000B2FBF0F30C
:1018C000B3FBF1F36FF018067343B2FBF0F5B2FB14
:1018D000F0F605EB8305322303EB0515B5FBF1F5B7
:1018E000B6FBF1F605F0F00505EB0615B2FBF0F6D8
:1018F000B2FBF0F0B0FBF1F06FF01802504306EBD2
:10190000800003EB0010B0FBF1F0216800F00F0045
:101910002844886070BD0000003801402DE9F04186
:10192000984617460E460446069D27E0681C25D0BB
:101930002DB1FEF7C3FFA0EB0800A8421ED9206816
:101940000C3050E8001F21F4D07140E80012002A4A
:10195000F5D12068143050E8001F21F0010140E863
:101960000012002AF5D1202084F8410084F84200BA
:10197000002084F840000320BDE8F0812068006862
:1019800036EA000004D00020B842CFD00020F3E7B0
:101990000120F9E7FEE70907090E002804DB00F142
:1019A000E02080F80014704700F00F0000F1E02004
:1019B00080F8141D70470000FEF78EFFFFF73CFE15
:1019C000FFF7F4FCFFF78CFDFFF750FD0C21624898
:1019D000FFF790FB604E3220316808644FF4FA70D4
:1019E000FEF72CFE032202215CA0FFF79BFD5D4861
:1019F000FEF732FD5C4D4FF400684FF47A774146B4
:101A00002846FEF751FF002849D1C820FEF716FEF0
:101A1000002240212846FEF74CFF0124022201212A
:101A20004EA0FFF77FFD4F481830FEF7E7FD002876
:101A3000F4D04C4821462430FEF7DEFC0028EDD0DF
:101A40000322022149A0FFF76DFD3846FEF7F6FD9F
:101A5000641C042CE2DD43483130FEF749FDD8B167
:101A600040486D30FEF7A6FD01463E483D30FEF78A
:101A700013FD88B1052201213CA0FFF753FD384634
:101A8000FEF7DCFD0522002138A0FFF74BFD012207
:101A900040212846FEF70DFF3248FEF7DDFC4FF4EB
:101AA00080712846FEF700FF60BB00228021284697
:101AB000FEF7FFFE032201212EA0FFF733FD294888
:101AC0000C30FEF79BFD0028F4D02648012124307D
:101AD000FEF792FC0028EDD022484C30FEF72CFC9B
:101AE0000146FF2806D01F485D30FEF749FC384606
:101AF000FEF7A4FD1B48FEF7AFFC0122802128461B
:101B0000FEF7D7FE4FF480511B48FEF7CDFE0128AB
:101B10007FF475AF13480C30FEF770FD00283FF4DA
:101B20006EAF104801212430FEF766FC0028F6D085
:101B30000C484C30FEF700FD50B13168FA200864C3
:101B40003846FEF77BFD07483168001F00680864CF
:101B50000448FEF781FC52E7AC000020424C55459A
:101B600000000000040000200008014047524545E5
:101B70004E00000052454400000C014001020203E7
:101B80000405060708090A0B0C0D0E0F10100000C3
:101B9000000000000000010203040607080900001D
:101BA0000000010203040000C81B00080000002020
:101BB0009000000028010008581C00089000002038
:101BC0001007000044010008FA000000EF01FFFFC9
:101BD000FFFF010003330037EF01FFFFFFFF0100AC
:101BE00003010005EF01FFFFFFFF01000329002DA6
:101BF000EF01FFFFFFFF01000402000000EF01FF03
:101C0000FFFFFF010003050009EF01FFFFFFFF01D8
:101C10000006060100000000EF01FFFFFFFF0100CA
:101C20000804010000FFFF020CEF01FFFFFFFF01AE
:101C300000070C000000010000EF01FFFFFFFF01A3
:101C400000031D0021000000010000001000000042
:081C5000000000000024F40074
:04000005080000ED02
:00000001FF
